:020000040800F2
:100000005007002091010008C31A0008911600084B
:10001000C11A0008AF050008DD1B00080000000041
:10002000000000000000000000000000C71A0008E7
:100030001F07000800000000C51A0008411B000847
:10004000AB010008AB010008AB010008AB010008E0
:10005000AB010008AB010008AB010008AB010008D0
:10006000AB010008AB010008AB010008AB010008C0
:10007000AB010008AB010008AB010008AB010008B0
:10008000AB010008AB010008AB010008AB010008A0
:10009000AB010008AB010008AB010008AB01000890
:1000A000AB010008AB010008AB010008AB01000880
:1000B000AB010008AB010008AB010008AB01000870
:1000C000AB010008AB010008AB010008AB01000860
:1000D000AB010008AB010008AB010008AB01000850
:1000E000AB010008AB010008AB01000800F002F80A
:1000F00000F03FF80AA090E8000C82448344AAF183
:100100000107DA4501D100F034F8AFF2090EBAE880
:100110000F0013F0010F18BFFB1A43F0010318473B
:10012000C01C0000E01C0000103A24BF78C878C151
:10013000FAD8520724BF30C830C144BF04680C60ED
:10014000704700000023002400250026103A28BF35
:1001500078C1FBD8520728BF30C148BF0B60704739
:10016000642900F07180002070471FB51FBD10B5D5
:1001700010BD00F0E2F91146FFF7F7FF01F052FD64
:1001800000F000FA03B4FFF7F2FF03BC00F008FA36
:100190000948804709480047FEE7FEE7FEE7FEE71B
:1001A000FEE7FEE7FEE7FEE7FEE7FEE70448054957
:1001B000054A064B70470000951B0008ED0000083B
:1001C0005001002050070020500300205003002061
:1001D0000FB41CB5074B06AA7B44694600900598EE
:1001E00000F093F90020694600F0A2F91CBC5DF80C
:1001F00014FB00005503000070B5044685690068D3
:10020000C10601D5302600E02026C00707D070BD0A
:10021000D4E9012130469047206A401C20626D1EBF
:10022000F6D570BD70B5044685690078C00707D162
:1002300070BDD4E9012120209047206A401C206233
:100240006D1EF6D570BD00002DE9F0410646002474
:1002500010687529314616A510D0AFF3008000282C
:1002600002DA404213A507E031688A0701D512A5DA
:1002700002E0490704D511A5012401E0AFF3008095
:1002800000210A2206F1240709E0B0FBF2FCB0FBD2
:10029000F2F302FB1C00303078541846491C002849
:1002A000F3D123462A463046BDE8F04100F0CEB8EF
:1002B000000000002D0000002B00000020000000C6
:1002C0002DE9F05F894604464FF0000ADFF824B1BB
:1002D000FB44C0F820A02046E168884700287DD074
:1002E000252806D0D4E901219047206A401C2062CD
:1002F000F1E700255F462046E1688847202806464A
:1003000007DB312E05D2B81910F8200C08B10543CF
:10031000F1E7A80701D525F00405C4F81CA00027C3
:10032000C4F818A02A2E09D0304601F068FC38B372
:1003300004EB8708303EC8F8186019E059F8041B30
:10034000204604EB87029161E1688847012F064649
:1003500018D1E069002820DA25F020051DE0D8F842
:10036000180000EB800006EB40003038C8F8180099
:100370002046E1688847064601F041FC0028EED19E
:10038000012F0AD02E2E08D12046E16888477F1C15
:100390000646022F45F02005C4DBA069002803DAD9
:1003A000404245F00105A061E80701D025F01005A5
:1003B000A6B1A6F14100192802D8203645F40065FF
:1003C0004A463146204625604D46FFF7C9FE60B1DA
:1003D000012807D0ED1D25F0070000E007E000F13F
:1003E000080978E705F1040975E730467AE7206ADD
:1003F000BDE8F09FF81A00004FF0000200B5134668
:1004000094469646203922BFA0E80C50A0E80C5034
:10041000B1F12001BFF4F7AF090728BFA0E80C50E5
:1004200048BF0CC05DF804EB890028BF40F8042BDE
:1004300008BF704748BF20F8022B11F0804F18BF4B
:1004400000F8012B70477047704770472DE9F0475F
:100450000D4699469246044600F124080168880634
:1004600004D5E06921F01001216000E00120A842DC
:1004700001DD471B00E00027A1697A1902EB0900A2
:10048000081AA0612078C00602D42046FFF7B4FE07
:10049000002608E0D4E901211AF806009047206AF6
:1004A000401C761C20624E45F4DB2078C0060AD53D
:1004B0002046FFF7A1FE06E0D4E901213020904755
:1004C000206A401C2062381EA7F10107F4DC07E017
:1004D000D4E9012118F805009047206A401C2062E9
:1004E000281EA5F10105F3DC2046FFF79BFE2078CE
:1004F000000602D50220BDE8F0870120FBE70000DE
:1005000001694A1C02610878704700B58FB0CDE9D7
:1005100001310021059105497944CDE903101146C7
:100520006846FFF7CDFE0FB000BD0000E5FFFFFFFE
:100530000A6802F8010B0A607047754600F02CF853
:10054000AE4605006946534620F00700854618B0C0
:1005500020B5FFF72BFEBDE820404FF000064FF01E
:1005600000074FF000084FF0000B21F00701AC46E8
:10057000ACE8C009ACE8C009ACE8C009ACE8C00907
:100580008D46704710B50446AFF300802046BDE8A5
:100590001040FFF7F7BD000000487047EC00002056
:1005A00001491820ABBEFEE7260002007047FEE7B7
:1005B00010B504460298216022716371A071282051
:1005C000A0720620E0710C202072142060720820B6
:1005D000E072322000F000F900223321204600F0C2
:1005E00069F800223321204600F064F8052000F06D
:1005F000F3F800223221204600F05CF8052000F0DC
:10060000EBF800222021204600F054F8052000F0ED
:10061000E3F8E1790022204600F04CF8217A00222C
:10062000204600F047F8617A0022204600F042F8A8
:10063000A17A0022204600F03DF800220121204648
:1006400000F038F820460022BDE81040022100F0FA
:1006500031B830B4447900238C4201D8641EE1B231
:100660008479944201D8641EE2B232B1012A06D0E4
:10067000022A06D0032A06D007E00B4605E04031E7
:1006800002E0143100E05431CBB230BC43F08001C1
:10069000002200F00FB8012200F00CB870B50C4633
:1006A000054603E02846641CFFF7F5FF2178002982
:1006B000F8D170BD7CB506460807040EF07A01F04B
:1006C000F00518B145F0080544F00804012A01D0EE
:1006D0002AB108E045F0010544F0010403E025F0EB
:1006E000010524F0010445F004008DF80400012008
:1006F00000F072F88DF8055044F004008DF8060003
:10070000012000F069F84FF47A708DF807400090EE
:100710003179042301AA306800F026FA7CBD7047C5
:1007200000B585B04FF47A72072103A88DE8070061
:1007300001230022D021264800F0ACFA9DF80C00DD
:1007400000F00F01000900EB800001EB400121489F
:1007500001709DF80D1001F00F02090901EB8101F4
:1007600002EB410141709DF80E1001F00F020909E2
:1007700001EB810102EB410181709DF80F1001F046
:100780000F02090901EB810102EB4101C1709DF8E3
:10079000101001F00F02090901EB810102EB410188
:1007A00001719DF8111001F00F02090901EB81019F
:1007B00002EB410141719DF8121001F00F0209098D
:1007C00001EB810102EB4101817105B000BD000028
:1007D0006C0000200000002070B5044600F004F911
:1007E0000546601C02D004480078044400F0FCF880
:1007F000401BA042FAD370BD080000202DE9F84F3D
:10080000DFF8B891002409F1040A0AF1040B234629
:100810000F270BF1040EC9E00125A5402A40AA428A
:100820007DD1674ED1F804C0ACEB0608B44532D098
:1008300014DCBCF1030F3AD009DCBCF1000F2AD064
:10084000BCF1010F1CD0BCF1020F31D11DE0BCF195
:10085000110F17D0BCF1120F2AD119E0B8F5881F7B
:1008600019D006DCB8F5803F15D0B8F5801F1FD130
:1008700011E0B8F5001F0ED0B8F5041F18D10AE03A
:10088000CB6815E0CB681B1D12E0CB6808330FE086
:10089000CB680C330CE08B682BB1012B4FF00803B5
:1008A00003D0456104E0042302E0056100E0002379
:1008B000FF2A01D8064601E000F104064FEA84054C
:1008C00001D9A5F12005D6F8008007FA05FC28EA31
:1008D0000C0803FA05F548EA0508C6F800804D68DB
:1008E000ED0062D5374DAE6946F00106AE61AD69E7
:1008F00024F0030605F001050095334D06EB050CC9
:10090000DCF80850A607360F07FA06F825EA0805AE
:10091000DFF8B880404503D14FF0000817E044E00D
:10092000DFF8AC80404502D14FF001080FE0DFF85E
:10093000A480404502D14FF0020808E0DFF898801B
:10094000404502D14FF0030801E04FF0040808FAD7
:1009500006F848EA0508CCF808804D68D9F8006028
:10096000ED034D4601D5164300E096432E604D68D9
:10097000DAF80060AD03554601D5164300E0964312
:100980002E604D68DBF80060ED025D4601D5164330
:1009900000E096432E604D68DEF80060AD027546BB
:1009A00001D5164300E096432E60641C0D682A466C
:1009B000E5407FF431AFBDE8F88F0000000401404E
:1009C000000011100010024000000140000801402A
:1009D000000C014000100140001401400AB1016107
:1009E00070470904FBE70000014880687047000079
:1009F0000800002070B504001BD094F83D000025CD
:100A000020B984F83C50204600F0ECFA242084F809
:100A10003D002068016821F00101016000F04EFCFA
:100A20004D4A6168914201D84C4900E04C498842E6
:100A300001D2012070BD4B492368B0FBF1F15E6823
:100A400026F03F060E435E606368934206D94FF47A
:100A5000967359434FF47A73B1FBF3F12368491C41
:100A60001E6A26F03F06314319626168914210D830
:100A70004900401EB0FBF1F2521CC2F30B02042AE3
:100A800001D2042022E0B0FBF1F0401CC0F30B00C7
:100A90001CE0A368F3B301EBC10202EB0116421E96
:100AA000B2FBF6F2521C42F48042120549D093B3D5
:100AB00001EBC10202EB0111401EB0FBF1F0401C42
:100AC000C0F30B0040F4804040F400402168CA6944
:100AD0004CF6FF739A431043C861D4E907010843F9
:100AE00021680A6822F0C00210430860D4E90301BB
:100AF00001432068826848F2FF339A4311438160C2
:100B0000D4E9050108432168CA6822F0FF021043B6
:100B1000C86001E00EE016E02068016841F00101C4
:100B200001602564202084F83D00256384F83E5050
:100B3000002070BD01EB4106421EB2FBF6F2521CD2
:100B4000B3E70120C2E701EB4101401EB0FBF1F029
:100B5000401CC0F30B00B7E7A086010080841E0094
:100B600000093D0040420F002DE9F84F1F46904616
:100B70008A460446DDF82890FFF736FF054694F8CC
:100B80003D0020287FD119230122404920460095AD
:100B900000F0BEFE002876D194F83C00012872D007
:100BA000012084F83C0020680168C90703D101686E
:100BB00041F0010101602068016821F400610160D9
:100BC000212084F83D00102084F83E000026266491
:100BD000C4F824806785608D20852D48E0622B460F
:100BE0004A465146204600F06BFD90B920684169A5
:100BF0008069009036E02A464946204600F03AFFD8
:100C000050B1206C042804D12068016841F40071BF
:100C100001600120BDE8F88F606A216800780861F2
:100C2000606A401C6062618D491E6185218D491E8C
:100C300089B2218522685369DB435B070BD451B12C
:100C400000781061606A401C6062608D401E6085A3
:100C5000208D401E20852A464946204600F032FE5F
:100C60000028CED1208D0028C5D154F83D0B016855
:100C700041F400710160202004F81E09E6776677D0
:100C80000020C7E7FFE70220C4E7000002001000D1
:100C90000000FFFF2DE9FF4F83B09A46DDE9119771
:100CA00093460446DDF84080FFF79EFE054694F823
:100CB0003D0020286FD1192301227B492046009551
:100CC00000F026FE0028F5D194F83C00012862D0FF
:100CD000012084F83C0020680168C90703D101683D
:100CE00041F0010101602168086820F4006008609B
:100CF000222084F83D00402084F83E00002626642F
:100D0000C4F82480A4F82A90608D20856748E062AA
:100D1000CDE9007553465A462046049900F014FD6B
:100D200000287DD1208DDFF8888168B1012814D09A
:100D3000022820D02068016841F4806101602068A9
:100D4000416980690090A0E0206841698169009153
:100D5000016841F40071016097E02068016821F4A6
:100D60008061016072B62068416981690091016803
:100D700041F400710CE02168086840F400600860EC
:100D800072B62068416981690091016821F480612F
:100D9000016062B679E084E003284FD801280BD0C7
:100DA00002283B464FF000024146204600950ED0F7
:100DB00000F0AEFDA0BB0FE02A463946204600F009
:100DC00026FE68BB20680069616A087054E000F084
:100DD0009FFD28BB72B61AE02068016821F480618B
:100DE000016072B620680069616A0870606A401C20
:100DF0006062208D401E2085608D401E60853B46D0
:100E0000002241462046009500F082FD40B920684E
:100E1000016841F40071016020680069616A00E0C6
:100E200012E00870606A401C6062218D491E2185B5
:100E3000618D491E618562B621681BE02A463946EC
:100E4000204600F0E4FD18B1012007B0BDE8F08FA6
:100E500020680069616A0870606A401C6062218DC8
:100E6000491E2185618D491E618521684A69D243E9
:100E700052070AD409690170606A401C6062208DC3
:100E8000401E2085608D401E6085208D002883D106
:100E9000202084F83D0084F83E6084F83C60002007
:100EA000D3E70220D1E70000020010000000FFFF9E
:100EB000040001002DE9FF4F83B09A46DDE9119748
:100EC00093460446DDF84080FFF78EFD054694F812
:100ED0003D0020287FD1192301224049204600955A
:100EE00000F016FD002876D194F83C00012872D05D
:100EF000012084F83C0020680168C90703D101681B
:100F000041F0010101602068016821F40061016085
:100F1000212084F83D00402084F83E00002626640D
:100F2000C4F82480A4F82A90608D20852C48E062C3
:100F3000CDE9007553465A462046049900F078FCE6
:100F400070B930E02A463946204600F093FD58B18A
:100F5000206C042804D12068016841F4007101600C
:100F6000012007B0BDE8F08F606A21680078086151
:100F7000606A401C6062218D491E89B22185628DA4
:100F8000521E628522685369DB435B070BD469B14B
:100F900000781061606A401C6062208D401E2085D0
:100FA000608D401E6085208D0028CBD12A463946B1
:100FB000204600F087FC0028CAD154F83D0B016898
:100FC00041F400710160202004F81E09E67766777D
:100FD0000020C6E7FFE70220C3E700000200100080
:100FE0000000FFFF30B585B0002100910191029112
:100FF00003911E4D03681E4C122103221D48AB4273
:1010000016D1A36943F00803A361A369039203F017
:1010100008030493C023CDE900316946FFF7EEFBD6
:10102000E06940F40010E061E06900F4001019E0AC
:10103000114DAB4217D1A36943F00803A361A36923
:10104000039203F0080304934FF44063CDE90031A9
:101050006946FFF7D3FBE06940F48000E061E06996
:1010600000F48000049005B030BD00000054004042
:1010700000100240000C0140005800400248816806
:10108000027811448160704708000020074810B5BD
:10109000016841F010010160032000F067F80F20A3
:1010A00000F006F800F024F8002010BD00200240F7
:1010B00070B50D4D04464FF47A712878B1FBF0F00D
:1010C0000A490968B1FBF0F000F0CEFA48B9102CDB
:1010D00007D200222146501E00F028F800206C6044
:1010E00070BD012070BD0000080000201400002029
:1010F0000C4808B5816941F001018161816901F005
:1011000001010091C16941F08051C161C06900F0E5
:10111000805000900448416821F0E06141F0007186
:10112000416008BD0010024000000140F0B40E4BC9
:101130001B680C46C3F30223C3F10705042D00D935
:101140000425191D072901D2002300E0DB1E01261A
:1011500006FA05F1491E214099409E40761E164030
:101160003143F0BC00F03BBD0CED00E0064900F05F
:10117000070208684FF6FF03184040EA0220034ABE
:1011800010430860704700000CED00E00000FA0515
:101190002DE9F0470F46050061D0434E306800F05E
:1011A0000700B84209D2306820F0070038433060A9
:1011B000306800F00700B84251D128683B4C8107E5
:1011C00012D5400703D5606840F4E060606028787D
:1011D000000703D5606840F4605060606068A968EB
:1011E00020F0F000084360602878C00728D06868C5
:1011F000012810D02168022810D0890700292EDA92
:10120000616821F0030101436160FFF7EDFB804657
:1012100041F288390DE021688903EFE78901EDE7A4
:10122000FFF7E2FBA0EB0801494502D90320BDE826
:10123000F0876068696800F00C00B0EB810FEFD1B7
:10124000306800F00700B8420BD9306820F0070082
:1012500038433060306800F00700B84201D0012008
:10126000E5E72878400705D56068E96820F4E06084
:10127000084360602878000706D56068296920F473
:10128000605040EAC100606000F028F86168084AD8
:10129000C1F30311515CC840064908600648006864
:1012A000FFF706FF0020C2E70020024000100240C6
:1012B000B41D0008140000200C000020044805495B
:1012C00000684968044AC1F30221515CC840704774
:1012D0001400002000100240C41D000812A185B0B7
:1012E0000FC98DE80F0014A0144A006804905168DB
:1012F000134801F00C03042B10D0082B0ED1C1F3BE
:101300008343C9031DF803000AD5516804AAC1F339
:101310004041515C0A4A5043B0FBF1F005B07047C0
:1013200008494843FAE700000203040506070809D4
:101330000A0B0C0D0E0F10100102000000100240ED
:1013400000127A0000093D002DE9F84F040070D02A
:101350002078C04DC00749D06868C0F381000128DB
:1013600007D06868C0F38100022809D16868C0030B
:1013700006D52868800339D560680028E7D035E0B5
:101380006068B0F5803F0BD010B1B0F5A02F11D040
:10139000286820F480302860286820F4802002E04B
:1013A000286840F480302860606890B1FFF71CFB2B
:1013B00006460AE0286840F480202860F0E700BF75
:1013C000FFF712FB801B642873D828688003F7D5C9
:1013D0000CE0FFF709FB064605E000BFFFF704FB42
:1013E000801B6428F0D828688003F7D420789A4EB0
:1013F00080074FF001094FF0000839D5686810F0F8
:101400000C0F07D06868C0F38100022809D1686812
:10141000C00306D42868800714D52069012808D1A4
:1014200010E02069B0B1C6F80090FFF7DDFA07467A
:1014300005E00AE1FFF7D8FAC01B0228C4D82868E3
:101440008007F7D52868616920F0F80040EAC100FC
:1014500028600DE0C6F80080FFF7C6FA074604E0F2
:10146000FFF7C2FAC01B022823D828688007F7D4E8
:10147000207800072CD57948A169D9B1C0F800902F
:10148000FFF7B2FA074604E0FFF7AEFAC01B0228E6
:101490000FD8686A8007F7D571484FF4FA51006891
:1014A000B0FBF1F0009000BF0098411E0091FAD20D
:1014B0000EE080E0C0F80080FFF796FA074604E0EF
:1014C000FFF792FAC01B022875D8686A8007F7D424
:1014D0002078400760D5E8690027C00008D4E86993
:1014E00040F08050E861E869012700F080500090EA
:1014F0005C480168C90513D40168834641F48071D2
:101500000160FFF771FA824606E000BFFFF76CFA50
:10151000A0EB0A0064284ED8DBF80000C005F5D522
:10152000E06801280AD008B1052813D0286A20F005
:1015300001002862286A20F0040002E0286A40F0D6
:1015400001002862E06841F2883B98B1FFF74CFA4D
:1015500082460BE0286A40F004002862EEE700BFF4
:10156000FFF742FAA0EB0A0159455AD8286A8007CA
:10157000F6D50CE0FFF738FA824605E0FFF734FABB
:10158000A0EB0A0159454CD8286A8007F6D41FB150
:10159000E86920F08050E861E06988B36968C1F3C8
:1015A0008101022944D00228C6F8608004D0FFF7E8
:1015B0001BFA044638E034E0FFF716FA074604E069
:1015C000FFF712FAC01B02282BD828688001F7D435
:1015D000206AB0F5803F05D16868A16820F400302A
:1015E00008436860D4E908010843696821F474116C
:1015F00008436860C6F86090FFF7F6F9044606E015
:1016000025E000BFFFF7F0F9001B022809D8286881
:101610008001F7D51BE000BFFFF7E6F9001B0228A9
:1016200002D90320BDE8F88F28688001F4D40EE0C9
:101630000128F7D06868226A00F48031914204D111
:10164000616A00F47010884201D00120EAE70020AE
:10165000E8E70000001002400000424280044242DD
:10166000140000200070004010B5401EB0F1807FD3
:1016700001D3012010BD4FF0E02460610F216017FD
:1016800000F0ADFA0020A06107202061002010BD0D
:10169000FEE701684A69D24352050FD46FF48062B5
:1016A0004A61002140F8301F202242738173026991
:1016B00042F004020261017301207047002070476C
:1016C000F8B50446C06A1E460D461746082807D0DE
:1016D000012805D010F5803F02D0206B122804D1DC
:1016E0002068016841F480710160134600224FF0C8
:1016F00001112046009600F00BF908BB2069B0F5F7
:10170000804F0ED00620216800EAD51040F0F0008E
:10171000086133463A460B49204600F02DF978B966
:1017200002E005F0FE0000E0E8B22168086105492A
:1017300033463A46891F204600F01EF9002800D0A3
:101740000120F8BD080001002DE9F84F04460068AB
:1017500089460B9D01689846174641F480610160F7
:101760002068016841F48071016000954FF0011A12
:101770000022514620460A9B00F0CAF8002853D1A7
:10178000216809F0FE0008610AF1010B2B46594659
:1017900020460A9A00F0F0F8F0BB206841698069A1
:1017A00000902A4620460A9900F064F940B1206C66
:1017B000042839D12068016841F40071016033E0E8
:1017C000FEB2B8F1010F09D02168380A08612A4633
:1017D00020460A9900F04EF90028E8D120680661F9
:1017E0002A4620460A9900F045F90028DFD12068F2
:1017F000016841F480710160009500225146204645
:101800000A9B00F085F838B9216809F0FF0040F024
:10181000010008612B4600E006E0594620460A9A7E
:1018200000F0AAF8002800D00120BDE8F88F0000E1
:101830002DE9F843044600680D46DDE90897016884
:101840009846164641F4807101604B4600224FF0E5
:1018500001112046009700F05BF8E0B9216805F01F
:10186000FE0008613B464A461549204600F084F8D0
:1018700088B920684169806900903A464946204607
:1018800000F0F8F850B1206C042804D120680168F9
:1018900041F4007101600120BDE8F883F5B2B8F1B0
:1018A000010F09D02168300A08613A4649462046AE
:1018B00000F0E0F80028E6D1206805610020EBE7A1
:1018C0000200010070B516460D4604460DE02046A4
:1018D000FFF7DFFE08B1012070BD681C05D0FFF7DF
:1018E00083F8801BA84207D835B120684069C043FF
:1018F0004007ECD4002070BD002044F8300F2021B8
:101900006173A073216941F0200121612073E2E736
:101910002DE9F0471E4690460D460446C1F30747A1
:10192000DDF8209008E0701C06D0FFF75DF8A0EB12
:101930000900B0420FD876B12068012F18D0806915
:1019400025EA00000004000C14D000214145EAD033
:101950000020BDE8F087002044F8300F202161739B
:10196000A073216941F02001216120730120F0E77B
:101970004069E5E70121E9E72DE9F0479A469146FC
:101980000E46044600254FF02008C1F3074725E026
:1019900020684069C043400514D42068016841F4C0
:1019A0000071016021686FF480604861256384F8EC
:1019B0003D8084F83E50206C40F00400206484F8A0
:1019C0003C501FE0B9F1FF3F08D0FFF70DF8A0EB46
:1019D0000A0149450CD8B9F1000F09D02068012F40
:1019E00013D0806926EA00000004000C0BD0CFE77A
:1019F00044F8305F84F80D80A573206940F0200022
:101A0000206125730120BDE8F0874069EAE72DE9F0
:101A1000F041002590460E460446202717E0406915
:101A2000C043C0060CD454F8301B6FF0100048615E
:101A300044F810596777A577206A2062257717E068
:101A4000FEF7D2FFA0EB0800B04208D83EB12068F4
:101A50004169C9434906E2D40020BDE8F08144F859
:101A6000305F6773A573206940F020002061257303
:101A70000120F2E770B516460D4604460DE02046FB
:101A8000FFF707FE08B1012070BD681C05D0FEF706
:101A9000ABFF801BA84207D835B120684069C0431E
:101AA0000006ECD4002070BD002044F8300F202147
:101AB0006173A073216941F0200121612073E2E785
:101AC000FEE7FEE7704770472DE9F04186B00F460C
:101AD0000CA9984691E83800164600F097F88DF862
:101AE0000C00384600F092F88DF80D00304600F0FA
:101AF0008DF88DF80E00404600F088F88DF80F0044
:101B0000184600F083F88DF81000204600F07EF8AB
:101B10008DF81100284600F079F88DF812004FF486
:101B20007A72072103A88DE8070001230022D02143
:101B30000248FFF7BFF906B0BDE8F0816C00002055
:101B4000FFF79CBA10B590B028216846FEF754FC08
:101B500014210AA8FEF750FC0220009001200490F6
:101B600010200024059007946846FFF7EDFB08B1AC
:101B700072B6FEE70F20CDE90A040C940D94002103
:101B80000AA80E94FFF704FB002801D072B6FEE706
:101B900010B010BD0D48016841F0010101604168BD
:101BA0000B4A1140416001680A4A11400160016816
:101BB00021F480210160416821F4FE0141604FF46D
:101BC0001F0181600449C003086070470010024093
:101BD0000000FFF8FFFFF6FE08ED00E0FEE7090752
:101BE000090E002804DB00F1E02080F800147047A3
:101BF00000F00F0000F1E02080F8141D704730382D
:101C00000A2801D201207047002070470A2190FB6A
:101C1000F1F201FB120290FBF1F002EB0010C0B2F6
:101C20007047000086B0FFF731FAFFF78BFF002402
:101C30004C480094019402940394816941F004019A
:101C40008161816901F004010491816941F0080119
:101C500081618069444E00F0080040F6FE750490F2
:101C6000002229463046FEF7B9FE0120CDE900509A
:101C7000022569463046CDE90245FEF7BFFD3C48E6
:101C80003A493C4E0160C0E901640F14C0E90347C2
:101C900044618461C4610462FEF7ACFE08B172B6AF
:101CA000FEE73348344954300160C0E90164C0E9BB
:101CB000034744618461C4610462FEF79BFE08B17E
:101CC00072B6FEE72A4910234E2201F1C8000095A2
:101CD000FEF76EFC264800221146C830FEF7B9FC1C
:101CE000234826A1C830FEF7D9FC1922052112206D
:101CF0008DE807000723002222210120FFF7E4FEE0
:101D0000214C00BFFEF70CFD194800221146C830D7
:101D1000FEF79FFC2078009015486378A2781BA1FD
:101D2000A830FEF755FA1249A83101F12000FEF75C
:101D3000B5FC0F4801220021C830FEF78AFCA179CA
:101D40006079CDE900010A482379E27813A1A8302F
:101D5000FEF73EFA0649A83101F12000FEF79EFC8D
:101D6000D0E700000010024000080140005400408D
:101D700018000020A0860100005800405855414E30
:101D8000204D414900000000000000202530326451
:101D90003A253032643A2530326400005425642DEF
:101DA000253032642D253032642D323025303264B6
:101DB0000000000000000000000000000102030419
:101DC00006070809000000000102030404000008DF
:101DD00000000000000000020001000010000000F0
:101DE000001E000800000020180000002801000864
:101DF000181E0008180000203807000044010008E1
:101E000000000000000000000100000010000000C1
:081E1000000000000024F400B2
:04000005080000ED02
:00000001FF
